{
  "contractName": "Vote",
  "abi": [
    {
      "constant": true,
      "inputs": [],
      "name": "ownerAddr",
      "outputs": [
        {
          "name": "",
          "type": "address"
        }
      ],
      "payable": false,
      "stateMutability": "view",
      "type": "function"
    },
    {
      "constant": false,
      "inputs": [
        {
          "name": "_newOwner",
          "type": "address"
        }
      ],
      "name": "transferOwnership",
      "outputs": [],
      "payable": false,
      "stateMutability": "nonpayable",
      "type": "function"
    },
    {
      "inputs": [],
      "payable": false,
      "stateMutability": "nonpayable",
      "type": "constructor"
    },
    {
      "constant": false,
      "inputs": [
        {
          "name": "_voterAddr",
          "type": "address"
        }
      ],
      "name": "setVoterAddr",
      "outputs": [],
      "payable": false,
      "stateMutability": "nonpayable",
      "type": "function"
    },
    {
      "constant": false,
      "inputs": [
        {
          "name": "_voterAddr",
          "type": "address"
        }
      ],
      "name": "checkVoterAddr",
      "outputs": [
        {
          "name": "",
          "type": "bool"
        }
      ],
      "payable": false,
      "stateMutability": "nonpayable",
      "type": "function"
    },
    {
      "constant": false,
      "inputs": [
        {
          "name": "_vote",
          "type": "bytes"
        }
      ],
      "name": "createVote",
      "outputs": [],
      "payable": false,
      "stateMutability": "nonpayable",
      "type": "function"
    },
    {
      "constant": false,
      "inputs": [],
      "name": "sendVote",
      "outputs": [],
      "payable": false,
      "stateMutability": "nonpayable",
      "type": "function"
    },
    {
      "constant": true,
      "inputs": [],
      "name": "viewResult",
      "outputs": [
        {
          "name": "",
          "type": "bytes[]"
        }
      ],
      "payable": false,
      "stateMutability": "view",
      "type": "function"
    }
  ],
  "bytecode": "0x608060405234801561001057600080fd5b50336000806101000a81548173ffffffffffffffffffffffffffffffffffffffff021916908373ffffffffffffffffffffffffffffffffffffffff160217905550336000806101000a81548173ffffffffffffffffffffffffffffffffffffffff021916908373ffffffffffffffffffffffffffffffffffffffff160217905550610ad0806100a06000396000f300608060405260043610610083576000357c0100000000000000000000000000000000000000000000000000000000900463ffffffff1680631dd410cf146100885780633356745f146100b15780633cff0380146100da5780633d229ae71461010557806381ee1f0b1461011c5780639c675eaa14610159578063f2fde38b14610184575b600080fd5b34801561009457600080fd5b506100af60048036036100aa91908101906107ea565b6101ad565b005b3480156100bd57600080fd5b506100d860048036036100d39190810190610813565b610271565b005b3480156100e657600080fd5b506100ef6102c8565b6040516100fc9190610931565b60405180910390f35b34801561011157600080fd5b5061011a6103b1565b005b34801561012857600080fd5b50610143600480360361013e91908101906107ea565b610457565b6040516101509190610953565b60405180910390f35b34801561016557600080fd5b5061016e6104fa565b60405161017b9190610916565b60405180910390f35b34801561019057600080fd5b506101ab60048036036101a691908101906107ea565b61051f565b005b6000809054906101000a900473ffffffffffffffffffffffffffffffffffffffff1673ffffffffffffffffffffffffffffffffffffffff163373ffffffffffffffffffffffffffffffffffffffff1614151561020857600080fd5b60013390806001815401808255809150509060018203906000526020600020016000909192909190916101000a81548173ffffffffffffffffffffffffffffffffffffffff021916908373ffffffffffffffffffffffffffffffffffffffff1602179055505050565b80600260003373ffffffffffffffffffffffffffffffffffffffff1673ffffffffffffffffffffffffffffffffffffffff16815260200190815260200160002090805190602001906102c4929190610654565b5050565b60606004805480602002602001604051908101604052809291908181526020016000905b828210156103a8578382906000526020600020018054600181600116156101000203166002900480601f0160208091040260200160405190810160405280929190818152602001828054600181600116156101000203166002900480156103945780601f1061036957610100808354040283529160200191610394565b820191906000526020600020905b81548152906001019060200180831161037757829003601f168201915b5050505050815260200190600101906102ec565b50505050905090565b600115156103be33610457565b15151415156103cc57600080fd5b6004600260003373ffffffffffffffffffffffffffffffffffffffff1673ffffffffffffffffffffffffffffffffffffffff16815260200190815260200160002090806001815401808255809150509060018203906000526020600020016000909192909190915090805460018160011615610100020316600290046104539291906106d4565b5050565b600080600090505b6001805490508110156104ef578273ffffffffffffffffffffffffffffffffffffffff1660018281548110151561049257fe5b9060005260206000200160009054906101000a900473ffffffffffffffffffffffffffffffffffffffff1673ffffffffffffffffffffffffffffffffffffffff1614156104e257600191506104f4565b808060010191505061045f565b600091505b50919050565b6000809054906101000a900473ffffffffffffffffffffffffffffffffffffffff1681565b6000809054906101000a900473ffffffffffffffffffffffffffffffffffffffff1673ffffffffffffffffffffffffffffffffffffffff163373ffffffffffffffffffffffffffffffffffffffff1614151561057a57600080fd5b6000809054906101000a900473ffffffffffffffffffffffffffffffffffffffff1673ffffffffffffffffffffffffffffffffffffffff163373ffffffffffffffffffffffffffffffffffffffff161415156105d557600080fd5b600073ffffffffffffffffffffffffffffffffffffffff168173ffffffffffffffffffffffffffffffffffffffff161415151561061157600080fd5b806000806101000a81548173ffffffffffffffffffffffffffffffffffffffff021916908373ffffffffffffffffffffffffffffffffffffffff16021790555050565b828054600181600116156101000203166002900490600052602060002090601f016020900481019282601f1061069557805160ff19168380011785556106c3565b828001600101855582156106c3579182015b828111156106c25782518255916020019190600101906106a7565b5b5090506106d0919061075b565b5090565b828054600181600116156101000203166002900490600052602060002090601f016020900481019282601f1061070d578054855561074a565b8280016001018555821561074a57600052602060002091601f016020900482015b8281111561074957825482559160010191906001019061072e565b5b509050610757919061075b565b5090565b61077d91905b80821115610779576000816000905550600101610761565b5090565b90565b600061078c8235610a23565b905092915050565b600082601f83011215156107a757600080fd5b81356107ba6107b58261099b565b61096e565b915080825260208301602083018583830111156107d657600080fd5b6107e1838284610a43565b50505092915050565b6000602082840312156107fc57600080fd5b600061080a84828501610780565b91505092915050565b60006020828403121561082557600080fd5b600082013567ffffffffffffffff81111561083f57600080fd5b61084b84828501610794565b91505092915050565b61085d816109f7565b82525050565b600061086e826109d4565b80845260208401935083602082028501610887856109c7565b60005b848110156108c05783830388526108a28383516108e0565b92506108ad826109ea565b915060208801975060018101905061088a565b508196508694505050505092915050565b6108da81610a17565b82525050565b60006108eb826109df565b8084526108ff816020860160208601610a52565b61090881610a85565b602085010191505092915050565b600060208201905061092b6000830184610854565b92915050565b6000602082019050818103600083015261094b8184610863565b905092915050565b600060208201905061096860008301846108d1565b92915050565b6000604051905081810181811067ffffffffffffffff8211171561099157600080fd5b8060405250919050565b600067ffffffffffffffff8211156109b257600080fd5b601f19601f8301169050602081019050919050565b6000602082019050919050565b600081519050919050565b600081519050919050565b6000602082019050919050565b600073ffffffffffffffffffffffffffffffffffffffff82169050919050565b60008115159050919050565b600073ffffffffffffffffffffffffffffffffffffffff82169050919050565b82818337600083830152505050565b60005b83811015610a70578082015181840152602081019050610a55565b83811115610a7f576000848401525b50505050565b6000601f19601f83011690509190505600a265627a7a7230582095079677645d3bdd6c03380131f65c4bbfc6fb53b4da033dfea0700781f40ae16c6578706572696d656e74616cf50037",
  "source": "pragma experimental ABIEncoderV2;\npragma solidity ^0.4.19;\n\nimport \"./Owned.sol\";\n\ncontract Vote is Owned{\n\n    address[] voters;\n\n    // voterAddr => vote text\n    mapping (address => bytes) voterToVote;\n\n    // voterAddr => vote count\n    mapping (address => uint) voterAddressToCount;\n\n    //result\n    bytes[] result;\n\n    constructor() {\n        ownerAddr = msg.sender;\n    }\n\n    function setVoterAddr(address _voterAddr) public onlyOwner{\n        voters.push(msg.sender);\n    }\n\n    function checkVoterAddr(address _voterAddr) public returns(bool){\n        for(uint i = 0; i < voters.length; i++){\n            if(voters[i] == _voterAddr){\n                return true;\n            }\n        }\n        return false;\n    }\n\n    function createVote(bytes _vote) public {\n        voterToVote[msg.sender] = _vote;\n    }\n\n    function sendVote() public{\n        require(checkVoterAddr(msg.sender) == true);\n        result.push(voterToVote[msg.sender]);\n    }\n\n    function viewResult() view public returns(bytes[]){\n        return result;\n    }\n}",
  "sourcePath": "/Users/andy/simple_evoting/contracts/Vote.sol",
  "compiler": {
    "name": "solc",
    "version": "0.4.24+commit.e67f0147.Emscripten.clang"
  },
  "schemaVersion": "2.0.1",
  "updatedAt": "2018-11-13T22:43:32.965Z"
}