{
  "contractName": "Vote",
  "abi": [
    {
      "constant": true,
      "inputs": [
        {
          "name": "",
          "type": "uint256"
        }
      ],
      "name": "result",
      "outputs": [
        {
          "name": "",
          "type": "bytes"
        }
      ],
      "payable": false,
      "stateMutability": "view",
      "type": "function"
    },
    {
      "constant": true,
      "inputs": [],
      "name": "ownerAddr",
      "outputs": [
        {
          "name": "",
          "type": "address"
        }
      ],
      "payable": false,
      "stateMutability": "view",
      "type": "function"
    },
    {
      "constant": true,
      "inputs": [
        {
          "name": "",
          "type": "address"
        }
      ],
      "name": "voterAddressToCount",
      "outputs": [
        {
          "name": "",
          "type": "uint256"
        }
      ],
      "payable": false,
      "stateMutability": "view",
      "type": "function"
    },
    {
      "constant": true,
      "inputs": [
        {
          "name": "",
          "type": "uint256"
        }
      ],
      "name": "voters",
      "outputs": [
        {
          "name": "",
          "type": "address"
        }
      ],
      "payable": false,
      "stateMutability": "view",
      "type": "function"
    },
    {
      "constant": true,
      "inputs": [
        {
          "name": "",
          "type": "address"
        }
      ],
      "name": "voterToVote",
      "outputs": [
        {
          "name": "",
          "type": "bytes"
        }
      ],
      "payable": false,
      "stateMutability": "view",
      "type": "function"
    },
    {
      "constant": false,
      "inputs": [
        {
          "name": "_newOwner",
          "type": "address"
        }
      ],
      "name": "transferOwnership",
      "outputs": [],
      "payable": false,
      "stateMutability": "nonpayable",
      "type": "function"
    },
    {
      "inputs": [],
      "payable": false,
      "stateMutability": "nonpayable",
      "type": "constructor"
    },
    {
      "anonymous": false,
      "inputs": [
        {
          "indexed": false,
          "name": "from",
          "type": "address"
        }
      ],
      "name": "Create",
      "type": "event"
    },
    {
      "anonymous": false,
      "inputs": [
        {
          "indexed": false,
          "name": "from",
          "type": "address"
        }
      ],
      "name": "Send",
      "type": "event"
    },
    {
      "constant": false,
      "inputs": [
        {
          "name": "_testAddr",
          "type": "uint256"
        }
      ],
      "name": "test",
      "outputs": [
        {
          "name": "",
          "type": "uint256"
        }
      ],
      "payable": false,
      "stateMutability": "nonpayable",
      "type": "function"
    },
    {
      "constant": false,
      "inputs": [
        {
          "name": "_vote",
          "type": "bytes"
        }
      ],
      "name": "createVote",
      "outputs": [],
      "payable": false,
      "stateMutability": "nonpayable",
      "type": "function"
    },
    {
      "constant": false,
      "inputs": [],
      "name": "sendVote",
      "outputs": [],
      "payable": false,
      "stateMutability": "nonpayable",
      "type": "function"
    },
    {
      "constant": true,
      "inputs": [],
      "name": "viewResult",
      "outputs": [
        {
          "name": "",
          "type": "bytes[]"
        }
      ],
      "payable": false,
      "stateMutability": "view",
      "type": "function"
    }
  ],
  "bytecode": "0x608060405234801561001057600080fd5b50336000806101000a81548173ffffffffffffffffffffffffffffffffffffffff021916908373ffffffffffffffffffffffffffffffffffffffff160217905550336000806101000a81548173ffffffffffffffffffffffffffffffffffffffff021916908373ffffffffffffffffffffffffffffffffffffffff160217905550610e35806100a06000396000f3fe6080604052600436106100a4576000357c0100000000000000000000000000000000000000000000000000000000900463ffffffff16806329e99f07146100a95780633356745f146100e65780633c5940591461010f5780633cff03801461014c5780633d229ae7146101775780639c675eaa1461018e578063d09be43a146101b9578063da58c7d9146101f6578063e6c6f00414610233578063f2fde38b14610270575b600080fd5b3480156100b557600080fd5b506100d060048036036100cb9190810190610b02565b610299565b6040516100dd9190610c76565b60405180910390f35b3480156100f257600080fd5b5061010d60048036036101089190810190610ac1565b6102a3565b005b34801561011b57600080fd5b5061013660048036036101319190810190610b02565b6103ce565b6040516101439190610c54565b60405180910390f35b34801561015857600080fd5b50610161610489565b60405161016e9190610c32565b60405180910390f35b34801561018357600080fd5b5061018c610572565b005b34801561019a57600080fd5b506101a3610715565b6040516101b09190610bfc565b60405180910390f35b3480156101c557600080fd5b506101e060048036036101db9190810190610a98565b61073a565b6040516101ed9190610c76565b60405180910390f35b34801561020257600080fd5b5061021d60048036036102189190810190610b02565b610752565b60405161022a9190610bfc565b60405180910390f35b34801561023f57600080fd5b5061025a60048036036102559190810190610a98565b610790565b6040516102679190610c54565b60405180910390f35b34801561027c57600080fd5b5061029760048036036102929190810190610a98565b610840565b005b6000819050919050565b6000600360003373ffffffffffffffffffffffffffffffffffffffff1673ffffffffffffffffffffffffffffffffffffffff168152602001908152602001600020541415156102f157600080fd5b600360003373ffffffffffffffffffffffffffffffffffffffff1673ffffffffffffffffffffffffffffffffffffffff1681526020019081526020016000206000815480929190600101919050555080600260003373ffffffffffffffffffffffffffffffffffffffff1673ffffffffffffffffffffffffffffffffffffffff1681526020019081526020016000209080519060200190610393929190610975565b507fe3758539c1bd6726422843471b2886c2d2cefd3b4aead6778386283e20a32a80336040516103c39190610c17565b60405180910390a150565b6004818154811015156103dd57fe5b906000526020600020016000915090508054600181600116156101000203166002900480601f0160208091040260200160405190810160405280929190818152602001828054600181600116156101000203166002900480156104815780601f1061045657610100808354040283529160200191610481565b820191906000526020600020905b81548152906001019060200180831161046457829003601f168201915b505050505081565b60606004805480602002602001604051908101604052809291908181526020016000905b82821015610569578382906000526020600020018054600181600116156101000203166002900480601f0160208091040260200160405190810160405280929190818152602001828054600181600116156101000203166002900480156105555780601f1061052a57610100808354040283529160200191610555565b820191906000526020600020905b81548152906001019060200180831161053857829003601f168201915b5050505050815260200190600101906104ad565b50505050905090565b6001600360003373ffffffffffffffffffffffffffffffffffffffff1673ffffffffffffffffffffffffffffffffffffffff168152602001908152602001600020541415156105c057600080fd5b6060600260003373ffffffffffffffffffffffffffffffffffffffff1673ffffffffffffffffffffffffffffffffffffffff1681526020019081526020016000208054600181600116156101000203166002900480601f0160208091040260200160405190810160405280929190818152602001828054600181600116156101000203166002900480156106955780601f1061066a57610100808354040283529160200191610695565b820191906000526020600020905b81548152906001019060200180831161067857829003601f168201915b5050505050905060048190806001815401808255809150509060018203906000526020600020016000909192909190915090805190602001906106d9929190610975565b50507f7d4b3c5c44bd8008199bb99f184426274cf24f917f4da3485d6a39f894366b103360405161070a9190610c17565b60405180910390a150565b6000809054906101000a900473ffffffffffffffffffffffffffffffffffffffff1681565b60036020528060005260406000206000915090505481565b60018181548110151561076157fe5b906000526020600020016000915054906101000a900473ffffffffffffffffffffffffffffffffffffffff1681565b60026020528060005260406000206000915090508054600181600116156101000203166002900480601f0160208091040260200160405190810160405280929190818152602001828054600181600116156101000203166002900480156108385780601f1061080d57610100808354040283529160200191610838565b820191906000526020600020905b81548152906001019060200180831161081b57829003601f168201915b505050505081565b6000809054906101000a900473ffffffffffffffffffffffffffffffffffffffff1673ffffffffffffffffffffffffffffffffffffffff163373ffffffffffffffffffffffffffffffffffffffff1614151561089b57600080fd5b6000809054906101000a900473ffffffffffffffffffffffffffffffffffffffff1673ffffffffffffffffffffffffffffffffffffffff163373ffffffffffffffffffffffffffffffffffffffff161415156108f657600080fd5b600073ffffffffffffffffffffffffffffffffffffffff168173ffffffffffffffffffffffffffffffffffffffff161415151561093257600080fd5b806000806101000a81548173ffffffffffffffffffffffffffffffffffffffff021916908373ffffffffffffffffffffffffffffffffffffffff16021790555050565b828054600181600116156101000203166002900490600052602060002090601f016020900481019282601f106109b657805160ff19168380011785556109e4565b828001600101855582156109e4579182015b828111156109e35782518255916020019190600101906109c8565b5b5090506109f191906109f5565b5090565b610a1791905b80821115610a135760008160009055506001016109fb565b5090565b90565b6000610a268235610d56565b905092915050565b600082601f8301121515610a4157600080fd5b8135610a54610a4f82610cbe565b610c91565b91508082526020830160208301858383011115610a7057600080fd5b610a7b838284610da8565b50505092915050565b6000610a908235610d68565b905092915050565b600060208284031215610aaa57600080fd5b6000610ab884828501610a1a565b91505092915050565b600060208284031215610ad357600080fd5b600082013567ffffffffffffffff811115610aed57600080fd5b610af984828501610a2e565b91505092915050565b600060208284031215610b1457600080fd5b6000610b2284828501610a84565b91505092915050565b610b3481610d72565b82525050565b610b4381610d1a565b82525050565b6000610b5482610cf7565b80845260208401935083602082028501610b6d85610cea565b60005b84811015610ba6578383038852610b88838351610bb7565b9250610b9382610d0d565b9150602088019750600181019050610b70565b508196508694505050505092915050565b6000610bc282610d02565b808452610bd6816020860160208601610db7565b610bdf81610dea565b602085010191505092915050565b610bf681610d4c565b82525050565b6000602082019050610c116000830184610b3a565b92915050565b6000602082019050610c2c6000830184610b2b565b92915050565b60006020820190508181036000830152610c4c8184610b49565b905092915050565b60006020820190508181036000830152610c6e8184610bb7565b905092915050565b6000602082019050610c8b6000830184610bed565b92915050565b6000604051905081810181811067ffffffffffffffff82111715610cb457600080fd5b8060405250919050565b600067ffffffffffffffff821115610cd557600080fd5b601f19601f8301169050602081019050919050565b6000602082019050919050565b600081519050919050565b600081519050919050565b6000602082019050919050565b6000610d2582610d2c565b9050919050565b600073ffffffffffffffffffffffffffffffffffffffff82169050919050565b6000819050919050565b6000610d6182610d2c565b9050919050565b6000819050919050565b6000610d7d82610d84565b9050919050565b6000610d8f82610d96565b9050919050565b6000610da182610d2c565b9050919050565b82818337600083830152505050565b60005b83811015610dd5578082015181840152602081019050610dba565b83811115610de4576000848401525b50505050565b6000601f19601f830116905091905056fea265627a7a723058202ef87f73d8fee0f0d6995d8e2f72ea2db35a4f660b88d37cbde3c272e4e663f76c6578706572696d656e74616cf50037",
  "source": "pragma experimental ABIEncoderV2;\npragma solidity >0.4.99 <0.6.0;\n\nimport \"./Owned.sol\";\n\ncontract Vote is Owned{\n\n    // confirmed voters\n    address[] public voters;\n\n    // voterAddr => vote text\n    mapping (address => bytes)  public voterToVote;\n\n    // voterAddr => vote count\n    mapping (address => uint)  public voterAddressToCount;\n\n    //voting result\n    bytes[] public result;\n\n    // create vote event\n    event Create(address from);\n\n    // send vote event\n    event Send(address from);\n\n    constructor() public {\n        ownerAddr = msg.sender;\n    }\n\n    function test(uint _testAddr) public returns(uint){\n        return _testAddr;\n    }\n\n    function createVote(bytes memory _vote) public {\n        require(voterAddressToCount[msg.sender] == 0);\n        voterAddressToCount[msg.sender]++;\n        voterToVote[msg.sender] = _vote;\n\n        emit Create(msg.sender);\n    }\n\n    function sendVote() public{\n        require(voterAddressToCount[msg.sender] == 1);\n        bytes memory myVote = voterToVote[msg.sender];\n        result.push(myVote);\n\n        emit Send(msg.sender);\n    }\n\n    function viewResult() view public returns(bytes[] memory){\n        return result;\n    }\n}",
  "sourcePath": "/Users/andy/simple_evoting/contracts/Vote.sol",
  "compiler": {
    "name": "solc",
    "version": "0.5.0+commit.1d4f565a.Emscripten.clang"
  },
  "schemaVersion": "3.0.0",
  "updatedAt": "2018-12-28T14:55:51.629Z",
  "devdoc": {
    "methods": {}
  },
  "userdoc": {
    "methods": {}
  }
}