{
  "contractName": "Vote",
  "abi": [
    {
      "constant": true,
      "inputs": [
        {
          "name": "",
          "type": "uint256"
        }
      ],
      "name": "result",
      "outputs": [
        {
          "name": "",
          "type": "string"
        }
      ],
      "payable": false,
      "stateMutability": "view",
      "type": "function",
      "signature": "0x3c594059"
    },
    {
      "constant": true,
      "inputs": [],
      "name": "ownerAddr",
      "outputs": [
        {
          "name": "",
          "type": "address"
        }
      ],
      "payable": false,
      "stateMutability": "view",
      "type": "function",
      "signature": "0x9c675eaa"
    },
    {
      "constant": true,
      "inputs": [
        {
          "name": "",
          "type": "address"
        }
      ],
      "name": "voterAddressToCount",
      "outputs": [
        {
          "name": "",
          "type": "uint256"
        }
      ],
      "payable": false,
      "stateMutability": "view",
      "type": "function",
      "signature": "0xd09be43a"
    },
    {
      "constant": true,
      "inputs": [
        {
          "name": "",
          "type": "uint256"
        }
      ],
      "name": "voters",
      "outputs": [
        {
          "name": "",
          "type": "address"
        }
      ],
      "payable": false,
      "stateMutability": "view",
      "type": "function",
      "signature": "0xda58c7d9"
    },
    {
      "constant": true,
      "inputs": [
        {
          "name": "",
          "type": "address"
        }
      ],
      "name": "voterToVote",
      "outputs": [
        {
          "name": "",
          "type": "string"
        }
      ],
      "payable": false,
      "stateMutability": "view",
      "type": "function",
      "signature": "0xe6c6f004"
    },
    {
      "constant": false,
      "inputs": [
        {
          "name": "_newOwner",
          "type": "address"
        }
      ],
      "name": "transferOwnership",
      "outputs": [],
      "payable": false,
      "stateMutability": "nonpayable",
      "type": "function",
      "signature": "0xf2fde38b"
    },
    {
      "inputs": [],
      "payable": false,
      "stateMutability": "nonpayable",
      "type": "constructor",
      "signature": "constructor"
    },
    {
      "anonymous": false,
      "inputs": [
        {
          "indexed": false,
          "name": "from",
          "type": "address"
        }
      ],
      "name": "Create",
      "type": "event",
      "signature": "0xe3758539c1bd6726422843471b2886c2d2cefd3b4aead6778386283e20a32a80"
    },
    {
      "anonymous": false,
      "inputs": [
        {
          "indexed": false,
          "name": "from",
          "type": "address"
        }
      ],
      "name": "Send",
      "type": "event",
      "signature": "0x7d4b3c5c44bd8008199bb99f184426274cf24f917f4da3485d6a39f894366b10"
    },
    {
      "constant": false,
      "inputs": [
        {
          "name": "_vote",
          "type": "string"
        }
      ],
      "name": "createVote",
      "outputs": [],
      "payable": false,
      "stateMutability": "nonpayable",
      "type": "function",
      "signature": "0x13292a02"
    },
    {
      "constant": false,
      "inputs": [],
      "name": "sendVote",
      "outputs": [],
      "payable": false,
      "stateMutability": "nonpayable",
      "type": "function",
      "signature": "0x3d229ae7"
    },
    {
      "constant": true,
      "inputs": [],
      "name": "viewResult",
      "outputs": [
        {
          "name": "",
          "type": "string[]"
        }
      ],
      "payable": false,
      "stateMutability": "view",
      "type": "function",
      "signature": "0x3cff0380"
    }
  ],
  "bytecode": "0x608060405234801561001057600080fd5b50336000806101000a81548173ffffffffffffffffffffffffffffffffffffffff021916908373ffffffffffffffffffffffffffffffffffffffff160217905550336000806101000a81548173ffffffffffffffffffffffffffffffffffffffff021916908373ffffffffffffffffffffffffffffffffffffffff160217905550610d49806100a06000396000f3fe608060405260043610610099576000357c0100000000000000000000000000000000000000000000000000000000900463ffffffff16806313292a021461009e5780633c594059146100c75780633cff0380146101045780633d229ae71461012f5780639c675eaa14610146578063d09be43a14610171578063da58c7d9146101ae578063e6c6f004146101eb578063f2fde38b14610228575b600080fd5b3480156100aa57600080fd5b506100c560048036036100c091908101906109d5565b610251565b005b3480156100d357600080fd5b506100ee60048036036100e99190810190610a16565b610330565b6040516100fb9190610b68565b60405180910390f35b34801561011057600080fd5b506101196103eb565b6040516101269190610b46565b60405180910390f35b34801561013b57600080fd5b506101446104d4565b005b34801561015257600080fd5b5061015b610629565b6040516101689190610b10565b60405180910390f35b34801561017d57600080fd5b50610198600480360361019391908101906109ac565b61064e565b6040516101a59190610b8a565b60405180910390f35b3480156101ba57600080fd5b506101d560048036036101d09190810190610a16565b610666565b6040516101e29190610b10565b60405180910390f35b3480156101f757600080fd5b50610212600480360361020d91908101906109ac565b6106a4565b60405161021f9190610b68565b60405180910390f35b34801561023457600080fd5b5061024f600480360361024a91908101906109ac565b610754565b005b33600360003373ffffffffffffffffffffffffffffffffffffffff1673ffffffffffffffffffffffffffffffffffffffff1681526020019081526020016000206000815480929190600101919050555081600260003373ffffffffffffffffffffffffffffffffffffffff1673ffffffffffffffffffffffffffffffffffffffff16815260200190815260200160002090805190602001906102f4929190610889565b507fe3758539c1bd6726422843471b2886c2d2cefd3b4aead6778386283e20a32a80336040516103249190610b2b565b60405180910390a15050565b60048181548110151561033f57fe5b906000526020600020016000915090508054600181600116156101000203166002900480601f0160208091040260200160405190810160405280929190818152602001828054600181600116156101000203166002900480156103e35780601f106103b8576101008083540402835291602001916103e3565b820191906000526020600020905b8154815290600101906020018083116103c657829003601f168201915b505050505081565b60606004805480602002602001604051908101604052809291908181526020016000905b828210156104cb578382906000526020600020018054600181600116156101000203166002900480601f0160208091040260200160405190810160405280929190818152602001828054600181600116156101000203166002900480156104b75780601f1061048c576101008083540402835291602001916104b7565b820191906000526020600020905b81548152906001019060200180831161049a57829003601f168201915b50505050508152602001906001019061040f565b50505050905090565b6060600260003373ffffffffffffffffffffffffffffffffffffffff1673ffffffffffffffffffffffffffffffffffffffff1681526020019081526020016000208054600181600116156101000203166002900480601f0160208091040260200160405190810160405280929190818152602001828054600181600116156101000203166002900480156105a95780601f1061057e576101008083540402835291602001916105a9565b820191906000526020600020905b81548152906001019060200180831161058c57829003601f168201915b5050505050905060048190806001815401808255809150509060018203906000526020600020016000909192909190915090805190602001906105ed929190610889565b50507f7d4b3c5c44bd8008199bb99f184426274cf24f917f4da3485d6a39f894366b103360405161061e9190610b2b565b60405180910390a150565b6000809054906101000a900473ffffffffffffffffffffffffffffffffffffffff1681565b60036020528060005260406000206000915090505481565b60018181548110151561067557fe5b906000526020600020016000915054906101000a900473ffffffffffffffffffffffffffffffffffffffff1681565b60026020528060005260406000206000915090508054600181600116156101000203166002900480601f01602080910402602001604051908101604052809291908181526020018280546001816001161561010002031660029004801561074c5780601f106107215761010080835404028352916020019161074c565b820191906000526020600020905b81548152906001019060200180831161072f57829003601f168201915b505050505081565b6000809054906101000a900473ffffffffffffffffffffffffffffffffffffffff1673ffffffffffffffffffffffffffffffffffffffff163373ffffffffffffffffffffffffffffffffffffffff161415156107af57600080fd5b6000809054906101000a900473ffffffffffffffffffffffffffffffffffffffff1673ffffffffffffffffffffffffffffffffffffffff163373ffffffffffffffffffffffffffffffffffffffff1614151561080a57600080fd5b600073ffffffffffffffffffffffffffffffffffffffff168173ffffffffffffffffffffffffffffffffffffffff161415151561084657600080fd5b806000806101000a81548173ffffffffffffffffffffffffffffffffffffffff021916908373ffffffffffffffffffffffffffffffffffffffff16021790555050565b828054600181600116156101000203166002900490600052602060002090601f016020900481019282601f106108ca57805160ff19168380011785556108f8565b828001600101855582156108f8579182015b828111156108f75782518255916020019190600101906108dc565b5b5090506109059190610909565b5090565b61092b91905b8082111561092757600081600090555060010161090f565b5090565b90565b600061093a8235610c6a565b905092915050565b600082601f830112151561095557600080fd5b813561096861096382610bd2565b610ba5565b9150808252602083016020830185838301111561098457600080fd5b61098f838284610cbc565b50505092915050565b60006109a48235610c7c565b905092915050565b6000602082840312156109be57600080fd5b60006109cc8482850161092e565b91505092915050565b6000602082840312156109e757600080fd5b600082013567ffffffffffffffff811115610a0157600080fd5b610a0d84828501610942565b91505092915050565b600060208284031215610a2857600080fd5b6000610a3684828501610998565b91505092915050565b610a4881610c86565b82525050565b610a5781610c2e565b82525050565b6000610a6882610c0b565b80845260208401935083602082028501610a8185610bfe565b60005b84811015610aba578383038852610a9c838351610acb565b9250610aa782610c21565b9150602088019750600181019050610a84565b508196508694505050505092915050565b6000610ad682610c16565b808452610aea816020860160208601610ccb565b610af381610cfe565b602085010191505092915050565b610b0a81610c60565b82525050565b6000602082019050610b256000830184610a4e565b92915050565b6000602082019050610b406000830184610a3f565b92915050565b60006020820190508181036000830152610b608184610a5d565b905092915050565b60006020820190508181036000830152610b828184610acb565b905092915050565b6000602082019050610b9f6000830184610b01565b92915050565b6000604051905081810181811067ffffffffffffffff82111715610bc857600080fd5b8060405250919050565b600067ffffffffffffffff821115610be957600080fd5b601f19601f8301169050602081019050919050565b6000602082019050919050565b600081519050919050565b600081519050919050565b6000602082019050919050565b6000610c3982610c40565b9050919050565b600073ffffffffffffffffffffffffffffffffffffffff82169050919050565b6000819050919050565b6000610c7582610c40565b9050919050565b6000819050919050565b6000610c9182610c98565b9050919050565b6000610ca382610caa565b9050919050565b6000610cb582610c40565b9050919050565b82818337600083830152505050565b60005b83811015610ce9578082015181840152602081019050610cce565b83811115610cf8576000848401525b50505050565b6000601f19601f830116905091905056fea265627a7a72305820192de1f3f5aae96c2ac9355c43ac61630dabce74b91964a6fe1ab3361a23c9206c6578706572696d656e74616cf50037",
  "source": "pragma experimental ABIEncoderV2;\npragma solidity >0.4.99 <0.6.0;\n\nimport \"./Owned.sol\";\n\ncontract Vote is Owned{\n\n    // confirmed voters\n    address[] public voters;\n\n    // voterAddr => vote text\n    mapping (address => string)  public voterToVote;\n\n    // voterAddr => vote count\n    mapping (address => uint)  public voterAddressToCount;\n\n    //voting result\n    string[] public result;\n\n    // create vote event\n    event Create(address from);\n\n    // send vote event\n    event Send(address from);\n\n    constructor() public {\n        ownerAddr = msg.sender;\n    }\n\n    // one address has one ballot.\n    modifier onceVote(address _user) {\n        //TODO:テスト用にrequireを外しているので戻す事\n\n        // require(voterAddressToCount[_user] == 0);\n        _;\n    }\n\n    function createVote(string memory _vote) public onceVote(msg.sender){\n        //TODO:テスト用にrequireを外しているので戻す事\n        // require(voterAddressToCount[msg.sender] == 0);\n        voterAddressToCount[msg.sender]++;\n        voterToVote[msg.sender] = _vote;\n\n        emit Create(msg.sender);\n    }\n\n    function sendVote() public{\n        //TODO:テスト用にrequireを外しているので戻す事\n        // require(voterAddressToCount[msg.sender] == 1);\n        string memory myVote = voterToVote[msg.sender];\n        result.push(myVote);\n\n        emit Send(msg.sender);\n    }\n\n    function viewResult() view public returns(string[] memory){\n        return result;\n    }\n\n}",
  "sourcePath": "/Users/andy/simple_evoting/contracts/Vote.sol",
  "compiler": {
    "name": "solc",
    "version": "0.5.0+commit.1d4f565a.Emscripten.clang"
  },
  "schemaVersion": "3.0.0",
  "updatedAt": "2019-01-10T06:51:11.220Z",
  "devdoc": {
    "methods": {}
  },
  "userdoc": {
    "methods": {}
  }
}